:020000040800F2
:1000000000A00020610B0108B10B0108B10B010831
:10001000B10B0108B10B0108B10B01080000000091
:10002000000000000000000000000000CD2A0008D1
:10003000B10B010800000000CF2A0008D12A0008F7
:10004000B10B0108B10B0108B10B0108B10B01089C
:10005000B10B0108B10B0108B10B0108B10B01088C
:10006000B10B0108B10B0108B10B0108B10B01087C
:10007000B10B0108B10B0108B10B0108B10B01086C
:10008000497B0008B10B0108B10B0108B10B010855
:10009000F9950008B10B0108B10B0108B10B01087B
:1000A000B10B0108B10B0108B10B0108B10B01083C
:1000B000B10B0108B10B0108B10B0108B10B01082C
:1000C000B10B0108B10B0108B10B0108B10B01081C
:1000D000B10B0108B10B0108B10B0108B10B01080C
:1000E000B10B0108B10B0108B10B0108B10B0108FC
:1000F000B10B0108B10B0108B10B0108B10B0108EC
:10010000000000000000000000000000B10B01082A
:10011000B10B0108B10B0108B10B0108B10B0108CB
:10012000B10B0108B10B0108B10B0108B10B0108BB
:10013000B10B0108B10B0108000000000000000035
:10014000B10B0108B10B0108B10B01080000000060
:10015000000000000000000000000000000000009F
:100160000000000000000000B10B0108B10B010805
:10017000B10B0108000000000000000000000000BA
:0801800000000000B10B0108B2
:1018000081F0004102E000BF83F0004330B54FEAB1
:1018100041044FEA430594EA050F08BF90EA020F1E
:101820001FBF54EA000C55EA020C7FEA645C7FEAB1
:10183000655C00F0E2804FEA5454D4EB5555B8BFD4
:101840006D420CDD2C4480EA020281EA030382EA45
:10185000000083EA010180EA020281EA0303362DD7
:1018600088BF30BD11F0004F4FEA01314FF4801CAA
:101870004CEA113102D0404261EB410113F0004FBC
:101880004FEA03334CEA133302D0524263EB430373
:1018900094EA050F00F0A780A4F10104D5F1200E11
:1018A0000DDB02FA0EFC22FA05F2801841F100016C
:1018B00003FA0EF2801843FA05F359410EE0A5F140
:1018C00020050EF1200E012A03FA0EFC28BF4CF071
:1018D000020C43FA05F3C01851EBE37101F0004527
:1018E00007D54FF0000EDCF1000C7EEB00006EEB34
:1018F0000101B1F5801F1BD3B1F5001F0CD34908BE
:101900005FEA30004FEA3C0C04F101044FEA445214
:1019100012F5800F80F09A80BCF1004F08BF5FEA9B
:10192000500C50F1000041EB045141EA050130BD7B
:101930005FEA4C0C404141EB0101013C28BFB1F58D
:10194000801FE9D291F0000F04BF01460020B1FAD8
:1019500081F308BF2033A3F10B03B3F120020CDAAB
:101960000C3208DD02F1140CC2F10C0201FA0CF089
:1019700021FA02F10CE002F11402D8BFC2F1200CEE
:1019800001FA02F120FA0CFCDCBF41EA0C019040A4
:10199000E41AA2BF01EB0451294330BD6FEA0404ED
:1019A0001F3C1CDA0C340EDC04F11404C4F12002D8
:1019B00020FA04F001FA02F340EA030021FA04F3EA
:1019C00045EA030130BDC4F10C04C4F1200220FA41
:1019D00002F001FA04F340EA0300294630BD21FA7F
:1019E00004F0294630BD94F0000F83F4801306BF45
:1019F00081F480110134013D4EE77FEA645C18BF39
:101A00007FEA655C29D094EA050F08BF90EA020FCF
:101A100005D054EA000C04BF1946104630BD91EAC7
:101A2000030F1EBF0021002030BD5FEA545C05D1CA
:101A30004000494128BF41F0004130BD14F5800409
:101A40003CBF01F5801130BD01F0004545F0FE417D
:101A500041F470014FF0000030BD7FEA645C1ABFB2
:101A6000194610467FEA655C1CBF0B46024650EAE9
:101A7000013406BF52EA033591EA030F41F4002115
:101A800030BD00BF90F0000F04BF0021704730B59B
:101A90004FF4806404F132044FF000054FF0000170
:101AA00050E700BF90F0000F04BF0021704730B531
:101AB0004FF4806404F1320410F0004548BF404206
:101AC0004FF000013EE700BF42004FEAE2014FEA5B
:101AD00031014FEA02701FBF12F07F4393F07F4F36
:101AE00081F06051704732F07F4208BF704793F039
:101AF0007F4F04BF41F40021704730B54FF460744C
:101B000001F0004521F000411CE700BF50EA01024E
:101B100008BF704730B54FF000050AE050EA0102F7
:101B200008BF704730B511F0004502D5404261EB67
:101B300041014FF4806404F132045FEA915C3FF4A8
:101B4000D8AE4FF003025FEADC0C18BF03325FEA45
:101B5000DC0C18BF033202EBDC02C2F1200300FAF6
:101B600003FC20FA02F001FA03FE40EA0E0021FA1B
:101B700002F11444BDE600BF70B54FF0FF0C4CF409
:101B8000E06C1CEA11541DBF1CEA135594EA0C0FBB
:101B900095EA0C0F00F0DEF82C4481EA030621EAF6
:101BA0004C5123EA4C5350EA013518BF52EA033531
:101BB00041F4801143F4801338D0A0FB02CE4FF0E3
:101BC0000005E1FB02E506F00042E0FB03E54FF013
:101BD0000006E1FB03569CF0000F18BF4EF0010E0B
:101BE000A4F1FF04B6F5007F64F5407404D25FEA07
:101BF0004E0E6D4146EB060642EAC62141EA5551BA
:101C00004FEAC52040EA5E504FEACE2EB4F1FD0CFB
:101C100088BFBCF5E06F1ED8BEF1004F08BF5FEA79
:101C2000500E50F1000041EB045170BD06F000462B
:101C300046EA010140EA020081EA0301B4EB5C04D8
:101C4000C2BFD4EB0C0541EA045170BD41F48011D0
:101C50004FF0000E013C00F3AB8014F1360FDEBFF5
:101C6000002001F0004170BDC4F10004203C35DAD1
:101C70000C341BDC04F11404C4F1200500FA05F354
:101C800020FA04F001FA05F240EA020001F00042F5
:101C900021F0004110EBD37021FA04F642EB06016B
:101CA0005EEA430E08BF20EAD37070BDC4F10C0495
:101CB000C4F1200500FA04F320FA05F001FA04F259
:101CC00040EA020001F0004110EBD37041F1000145
:101CD0005EEA430E08BF20EAD37070BDC4F1200550
:101CE00000FA05F24EEA020E20FA04F301FA05F2B8
:101CF00043EA020321FA04F001F0004121FA04F260
:101D000020EA020000EBD3705EEA430E08BF20EA2F
:101D1000D37070BD94F0000F0FD101F00046400069
:101D200041EB010111F4801F08BF013CF7D041EAEB
:101D3000060195F0000F18BF704703F000465200EF
:101D400043EB030313F4801F08BF013DF7D043EAC0
:101D50000603704794EA0C0F0CEA135518BF95EA76
:101D60000C0F0CD050EA410618BF52EA4306D1D1FD
:101D700081EA030101F000414FF0000070BD50EA1C
:101D8000410606BF1046194652EA430619D094EAA6
:101D90000C0F02D150EA013613D195EA0C0F05D190
:101DA00052EA03361CBF104619460AD181EA0301E4
:101DB00001F0004141F0FE4141F470014FF000009C
:101DC00070BD41F0FE4141F4780170BD70B54FF037
:101DD000FF0C4CF4E06C1CEA11541DBF1CEA1355B7
:101DE00094EA0C0F95EA0C0F00F0A7F8A4EB050499
:101DF00081EA030E52EA03354FEA013100F0888090
:101E00004FEA03334FF0805545EA131343EA126358
:101E10004FEA022245EA111545EA10654FEA00260D
:101E20000EF000419D4208BF964244F1FD0404F5C6
:101E3000407402D25B084FEA3202B61A65EB030522
:101E40005B084FEA32024FF480104FF4002CB6EBDF
:101E5000020E75EB030E22BFB61A754640EA0C005F
:101E60005B084FEA3202B6EB020E75EB030E22BF9F
:101E7000B61A754640EA5C005B084FEA3202B6EBE0
:101E8000020E75EB030E22BFB61A754640EA9C009F
:101E90005B084FEA3202B6EB020E75EB030E22BF6F
:101EA000B61A754640EADC0055EA060E18D04FEA2D
:101EB000051545EA16754FEA06164FEAC30343EACD
:101EC00052734FEAC2025FEA1C1CC0D111F4801F9A
:101ED0000BD141EA00014FF000004FF0004CB6E793
:101EE00011F4801F04BF01430020B4F1FD0C88BF32
:101EF000BCF5E06F3FF6AFAEB5EB030C04BFB6EB3D
:101F0000020C5FEA500C50F1000041EB045170BD2F
:101F10000EF0004E4EEA113114EB5C04C2BFD4EB5C
:101F20000C0541EA045170BD41F480114FF0000EE0
:101F3000013C90E645EA060E8DE60CEA135594EA5C
:101F40000C0F08BF95EA0C0F3FF43BAF94EA0C0F5F
:101F50000AD150EA01347FF434AF95EA0C0F7FF4D4
:101F600025AF104619462CE795EA0C0F06D152EA28
:101F700003353FF4FDAE1046194622E750EA41060C
:101F800018BF52EA43067FF4C5AE50EA41047FF41D
:101F90000DAF52EA43057FF4EBAE12E74FF0FF3C82
:101FA00006E000BF4FF0010C02E000BF4FF0010C53
:101FB0004DF804CD4FEA410C7FEA6C5C4FEA430CCC
:101FC00018BF7FEA6C5C1BD001B050EA410C0CBF1B
:101FD00052EA430C91EA030F02BF90EA020F00207D
:101FE000704710F1000F91EA030F58BF994208BFE4
:101FF00090422CBFD8176FEAE37040F001007047A1
:102000004FEA410C7FEA6C5C02D150EA013C07D1F7
:102010004FEA430C7FEA6C5CD6D152EA033CD3D042
:102020005DF8040B704700BF8446104662468C463C
:102030001946634600E000BF01B5FFF7B7FF00286F
:1020400048BF10F1000F01BD4DF808EDFFF7F4FF98
:102050000CBF012000205DF808FB00BF4DF808ED23
:10206000FFF7EAFF34BF012000205DF808FB00BF46
:102070004DF808EDFFF7E0FF94BF012000205DF868
:1020800008FB00BF4DF808EDFFF7CEFF94BF01201D
:1020900000205DF808FB00BF4DF808EDFFF7C4FF16
:1020A00034BF012000205DF808FB00BF4FEA410C5F
:1020B0007FEA6C5C02D150EA013C0AD14FEA430C42
:1020C0007FEA6C5C02D152EA033C02D14FF000007F
:1020D00070474FF0010070474A0011D212F500120C
:1020E00011D20DD56FF47873B3EB62520ED44FEA70
:1020F000C12343F0004343EA505323FA02F07047F0
:102100004FF00000704750EA013002D14FF0FF302D
:1021100070474FF0000070474FEA4102B2F1E043D0
:1021200024BFB3F5001CDCF1FE5C0DD901F0004CBE
:102130004FEAC0024CEA5070B2F1004F40EB83000E
:1021400008BF20F00100704711F0804F21D113F13A
:102150003872BCBF01F00040704741F480114FEA73
:102160005252C2F11802C2F1200C10FA0CF320FAFC
:1021700002F018BF40F001004FEAC1234FEAD32319
:1021800003FA0CFC40EA0C0023FA02F34FEA430383
:10219000CCE77FEA625307D150EA01331EBF4FF00C
:1021A000FE4040F44000704701F0004040F0FE4027
:1021B00040F40000704700BF80F0004002E000BF24
:1021C00081F0004142001FBF5FEA410392EA030F22
:1021D0007FEA226C7FEA236C6AD04FEA1262D2EB6C
:1021E0001363C1BFD218414048404140B8BF5B4271
:1021F000192B88BF704710F0004F40F4000020F00A
:102200007F4018BF404211F0004F41F4000121F01F
:102210007F4118BF494292EA030F3FD0A2F1010269
:1022200041FA03FC10EB0C00C3F1200301FA03F1A7
:1022300000F0004302D5494260EB4000B0F5000FCA
:1022400013D3B0F1807F06D340084FEA310102F189
:102250000102FE2A51D2B1F1004F40EBC25008BF3B
:1022600020F0010040EA03007047490040EB000005
:10227000013A28BFB0F5000FEDD2B0FA80FCACF106
:10228000080CB2EB0C0200FA0CF0AABF00EBC25033
:1022900052421843BCBFD0401843704792F0000F21
:1022A00081F4000106BF80F400000132013BB5E774
:1022B0004FEA41037FEA226C18BF7FEA236C21D0EA
:1022C00092EA030F04D092F0000F08BF084670474F
:1022D00090EA010F1CBF0020704712F07F4F04D11D
:1022E000400028BF40F00040704712F100723CBF30
:1022F00000F50000704700F0004343F0FE4040F45A
:10230000000070477FEA226216BF08467FEA236317
:102310000146420206BF5FEA412390EA010F40F402
:10232000800070474FF0000304E000BF10F000434E
:1023300048BF40425FEA000C08BF704743F0964335
:1023400001464FF000001CE050EA010208BF704750
:102350004FF000030AE000BF50EA010208BF7047D7
:1023600011F0004302D5404261EB41015FEA010CEC
:1023700002BF84460146002043F0B64308BFA3F1E4
:102380008053A3F50003BCFA8CF2083AA3EBC253C6
:1023900010DB01FA02FC634400FA02FCC2F12002E5
:1023A000BCF1004F20FA02F243EB020008BF20F01C
:1023B0000100704702F1200201FA02FCC2F1200282
:1023C00050EA4C0021FA02F243EB020008BF20EA77
:1023D000DC7070474FF0FF0C1CEAD0521EBF1CEAA5
:1023E000D15392EA0C0F93EA0C0F6FD01A4480EA93
:1023F000010C400218BF5FEA41211ED04FF000637C
:1024000043EA501043EA5111A0FB01310CF00040A7
:10241000B1F5000F3EBF490041EAD3715B0040EACD
:10242000010062F17F02FD2A1DD8B3F1004F40EB9D
:10243000C25008BF20F00100704790F0000F0CF070
:10244000004C08BF49024CEA502040EA51207F3A34
:10245000C2BFD2F1FF0340EAC250704740F400000F
:102460004FF00003013A5DDC12F1190FDCBF00F000
:1024700000407047C2F10002410021FA02F1C2F1AE
:10248000200200FA02FC5FEA310040F1000053EA4A
:102490004C0308BF20EADC70704792F0000F00F098
:1024A000004C02BF400010F4000F013AF9D040EA9E
:1024B0000C0093F0000F01F0004C02BF490011F432
:1024C000000F013BF9D041EA0C018FE70CEAD15330
:1024D00092EA0C0F18BF93EA0C0F0AD030F0004CB0
:1024E00018BF31F0004CD8D180EA010000F0004064
:1024F000704790F0000F17BF90F0004F084691F022
:10250000000F91F0004F14D092EA0C0F01D142025B
:102510000FD193EA0C0F03D14B0218BF084608D124
:1025200080EA010000F0004040F0FE4040F400006E
:10253000704740F0FE4040F4400070474FF0FF0C01
:102540001CEAD0521EBF1CEAD15392EA0C0F93EA48
:102550000C0F69D0A2EB030280EA010C49024FEA9A
:10256000402037D04FF0805343EA111143EA101353
:102570000CF000408B4238BF5B0042F17D024FF40B
:10258000000C8B4224BF5B1A40EA0C00B3EB510FE6
:1025900024BFA3EB510340EA5C00B3EB910F24BFCF
:1025A000A3EB910340EA9C00B3EBD10F24BFA3EB54
:1025B000D10340EADC001B0118BF5FEA1C1CE0D11C
:1025C000FD2A3FF650AF8B4240EBC25008BF20F0CF
:1025D000010070470CF0004C4CEA50207F32C2BF23
:1025E000D2F1FF0340EAC250704740F400004FF0C0
:1025F0000003013A37E792F0000F00F0004C02BFF1
:10260000400010F4000F013AF9D040EA0C0093F0BA
:10261000000F01F0004C02BF490011F4000F013B14
:10262000F9D041EA0C0195E70CEAD15392EA0C0F7C
:1026300008D142027FF47DAF93EA0C0F7FF470AFB4
:10264000084676E793EA0C0F04D14B023FF44CAFF7
:1026500008466EE730F0004C18BF31F0004CCAD18C
:1026600030F000427FF45CAF31F000437FF43CAFC8
:102670005FE700BF4FF0FF3C06E000BF4FF0010CEA
:1026800002E000BF4FF0010C4DF804CD4FEA4002CC
:102690004FEA41037FEA226C18BF7FEA236C11D016
:1026A00001B052EA530C18BF90EA010F58BFB2EBC9
:1026B000030088BFC81738BF6FEAE17018BF40F049
:1026C000010070477FEA226C02D15FEA402C05D1FD
:1026D0007FEA236CE4D15FEA412CE1D05DF8040B82
:1026E000704700BF844608466146FFE70FB5FFF715
:1026F000C9FF002848BF10F1000F0FBD4DF808EDCD
:10270000FFF7F4FF0CBF012000205DF808FB00BFBD
:102710004DF808EDFFF7EAFF34BF012000205DF817
:1027200008FB00BF4DF808EDFFF7E0FF94BF012064
:1027300000205DF808FB00BF4DF808EDFFF7D2FF61
:1027400094BF012000205DF808FB00BF4DF808EDA4
:10275000FFF7C8FF34BF012000205DF808FB00BF71
:102760004FEA4002B2F1FE4F0FD34FF09E03B3EB9E
:1027700012620DD94FEA002343F0004310F0004FDE
:1027800023FA02F018BF404270474FF00000704734
:1027900012F1610F01D1420205D110F0004008BFD3
:1027A0006FF0004070474FF00000704742000ED2BB
:1027B000B2F1FE4F0BD34FF09E03B3EB126209D47C
:1027C0004FEA002343F0004323FA02F070474FF032
:1027D0000000704712F1610F01D1420202D14FF0A7
:1027E000FF3070474FF00000704700BF10F8012B1A
:1027F00011F8013B012A28BF9A42F7D0D01A70473E
:10280000034613F8012B002AFBD1181A0138704730
:1028100001F0FF01102A2BDB10F0070F08D010F891
:10282000013B013A8B422DD010F0070F42B3F6D195
:10283000F0B441EA012141EA014122F007047FF0AE
:1028400000070023F0E80256083C85EA010586EA05
:10285000010685FA47F5A3FA87F586FA47F6A5FA41
:1028600087F68EB9EED1F0BC01F0FF0102F007024D
:1028700032B110F8013B013A83EA010313B1F8D1F8
:102880000020704701387047002D06BF35460338D9
:10289000073815F0010F07D1013015F4807F02BF12
:1028A000013015F4C03F0130F0BC0138704700BF63
:1028B0000348044B834202D0034B03B118477047CF
:1028C0008C0000208C000020000000000548064B12
:1028D0001B1AD90F01EBA301491002D0034B03B11E
:1028E000184770478C0000208C000020000000007A
:1028F00010B5064C237843B9FFF7DAFF044B13B148
:102900000448AFF300800123237010BD9000002025
:1029100000000000F82F010808B5054B1BB1054960
:102920000548AFF30080BDE80840FFF7CFBF00BF08
:102930000000000094000020F82F010808B50248AC
:1029400002F0DAFE08BD00BF340D0020FEE70000F3
:1029500000B59FB00B2314934FF4803315930022DE
:10296000169201221892102119911A9202221B929A
:102970001C934FF4E0131D9314A802F007FF68BBEB
:102980000F230F930221109111904FF48062129245
:1029900013900FA803F030FA10BBE22300930390CA
:1029A0004FF48073099310230793202308936846FC
:1029B00003F040FBB0B903F00BFB0B4BA3FB003063
:1029C000800901F03BFC042001F04CFC0022114680
:1029D0004FF0FF3001F016FC1FB000BDFFF7B6FF4F
:1029E000FFF7B4FFFFF7B2FFD34D621008B50A48F6
:1029F0000A4B03600623436040F6FF73C3608360A5
:102A000002F0FCFD20B9044802F045FE10B908BDF3
:102A1000FFF79CFFFFF79AFF340D002000300040C5
:102A200008B500F0E1F9FFF793FF01200BF06AFC15
:102A3000FFF7DCFF08F07CFA0146214C2060214DB5
:102A400028460BF0ADFC204E306006F04DFC08F03F
:102A500071FB0BF043FD20680BF08CFB21682846CE
:102A600007F032FA0DF04AFA2168284606F01EFDFA
:102A700008F0AAFE0221002008F060FD2168284627
:102A80000BF046F932682168284609F075FB216889
:102A9000284609F007FB08F037FE0BF083FB09F02E
:102AA00017FC0DF03BFA07F079F909F035FAFFF75A
:102AB00045FF0BF09BFA0028EDD00BF097FCEAE7FE
:102AC000300D0020AC0000202C0D00207047704716
:102AD00008B500F09BF901F0D6FB08BD00B583B046
:102AE0001C4B9A6942F001029A619B6903F0010351
:102AF0000193019B032001F073FB002211466FF04C
:102B00000B0001F07FFB002211466FF00A0001F07C
:102B100079FB002211466FF0090001F073FB0022DF
:102B200011466FF0040001F06DFB002211466FF0BA
:102B3000030001F067FB002211466FF0010001F075
:102B400061FB002211464FF0FF3001F05BFB03B048
:102B500000BD00BF001002400368B3F1A04F00D0D9
:102B6000704700B587B003F1704303F504335A6929
:102B700042F080525A615B6903F080530093009BDE
:102B800002230193032302930023039301A94FF02F
:102B9000904002F017F907B000BD00000268154B25
:102BA0009A4200D0704700B587B003F5D633DA6992
:102BB00042F00072DA61DB6903F000730093009B5E
:102BC0004FF4C05301930223029300230393032382
:102BD00004930923059301A94FF0904002F0F2F805
:102BE00000221146142001F00DFB142001F01AFB05
:102BF00007B000BD0064004000B589B003681E4AFC
:102C0000934204D01D4A93421AD009B000BDC0239C
:102C100003931223049301230593032306930423B0
:102C2000079303A9164802F0CDF8164BDA6942F46F
:102C30000012DA61DB6903F400130193019BE4E7FE
:102C40004FF4C063039312230493012305930323DA
:102C500006930423079303A94FF0904002F0B2F8C3
:102C6000084BDA6942F48002DA61DB6903F480031D
:102C70000293029BC9E700BF005400400058004087
:102C800000040048001002400268114B9A4200D034
:102C9000704700B587B003F5E633DA6942F40032D5
:102CA000DA61DB6903F400330093009B0C2301938A
:102CB0000223029301230393032304930723059321
:102CC00001A94FF0904002F07DF807B000BD00BFB1
:102CD00000440040124B1A6842F001021A60596821
:102CE000104A0A405A601A6822F0847222F4803234
:102CF0001A601A6822F480221A605A6822F4FE02CE
:102D00005A60DA6A22F00F02DA62196B064A0A4048
:102D10001A6300229A60054B4FF000629A60704778
:102D2000001002400CC07FF8CCFC00FF00ED00E07A
:102D30001D4B5B6803F00C03042B11D0082B13D040
:102D4000002B2DD1194B1A4A1A60174B5B68C3F33D
:102D50000313184AD15C154A1368CB4013607047BF
:102D6000124B134A1A60F0E70F4A53685268C3F3D4
:102D70008343023312F4803F05D10F4A02FB03F371
:102D80000A4A1360E1E7084AD16A01F00F010131F4
:102D9000074AB2FBF1F202FB03F3044A1360D4E7E3
:102DA000024B034A1A60D0E70010024000000020E6
:102DB00000127A003430010800093D0010B50446C5
:102DC000074B1868074BA3FB0030800901F036FA67
:102DD000002221464FF0FF3001F014FA002010BD10
:102DE00000000020D34D621008B5074A136843F075
:102DF00010031360032001F0F3F90020FFF7DEFF5A
:102E0000FFF76CFE002008BD00200240024A136854
:102E100001331360704700BF480D0020014B186854
:102E2000704700BF480D002010B582B00190FFF739
:102E3000F5FF0446FFF7F2FF001B019B9842F9D310
:102E400002B010BD38B50268936803F00303012B8C
:102E500001D0002038BD0446136813F0010F2ED0B6
:102E6000936803F00D03012B09D0436C43F010036A
:102E70004364836C43F0010383640120EAE79368B1
:102E800043F002039360036803221A60FFF7C6FF52
:102E9000054623689B6813F0010F0ED0FFF7BEFFB5
:102EA000401B0228F5D9636C43F010036364A36CE4
:102EB00043F00103A3640120CCE70020CAE700200F
:102EC000C8E7000038B504460268936803F00303BE
:102ED000012B0DD09168184B19420FD0636C43F051
:102EE00010036364A36C43F00103A364012038BDA5
:102EF000136813F0010FEDD00020F8E7936843F05A
:102F000001039360FFF78AFF054623681B6813F0EF
:102F1000010F0ED1FFF782FF431B022BF5D9636C23
:102F200043F010036364A36C43F00103A364012026
:102F3000DDE70020DBE700BF3F00008030B597B041
:102F400000230093002800F035810446436C13F001
:102F5000100F52D1436CABB1002023689A6812F075
:102F6000805F03D09B6813F0005F47D0636C23F051
:102F7000120343F010036364A36C43F00103A364E2
:102F800001203BE083640365C36480F84030FFF7B1
:102F9000E3FD23689B6813F0805F01D00020DCE72D
:102FA0002046FFF74FFF636C13F0100FD5D10028B8
:102FB000D3D1636C23F4885323F0020343F002035C
:102FC00063642268936823F0405393602268936897
:102FD00043F080539360784B1B68784AA2FB03232D
:102FE0009B0C03EB83035B00009302E0009B013B1F
:102FF0000093009B002BF9D1AFE70020636C13F026
:10300000100F40F0CE80002840F0CB8023689968F4
:1030100011F0040140F0C580626C22F4817242F02C
:1030200002026264B3F1A04F16D0654A934210D0F9
:10303000DFF890C1B3F1A04F11D0614A93426CD038
:10304000614A93426DD0614A93426ED00022019250
:1030500007E0DFF87CC1EDE7DFF874C1EAE7584A22
:1030600001929A6802F00302012A62D0019B23B107
:103070009A6802F00302012A60D0DCF8083023F4D9
:10308000403362681343CCF80830E2695303A56B00
:10309000012D01D04FF480510B43E1680B43A1682F
:1030A0000B43616A01294ED0E26A012A0BD02168E4
:1030B000DFF814C1614559D00CF5807C614555D0CD
:1030C000216B11430B432268916811F00C0F0BD157
:1030D000D16821F4804121F00201D160A169626BC5
:1030E000520042EA813213432168D1F80CC0394AB8
:1030F0000CEA02021A43CA602369012B48D02268F5
:10310000136B23F00F0313630023A364636C23F09A
:10311000030343F0010363644AE04FF0A0420192CD
:103120009FE702F5807201929BE7A2F580720192FF
:1031300097E71B6813F0010FA7D197E71B6813F0FF
:10314000010FA2D199E732B9A26A013A43EA424299
:1031500042F48033A8E7626C22F0220242F020029F
:103160006264A26C42F00102A2649DE7B2F5307F76
:1031700008D0B2F5807F08D0B2F5E07FA0D14FF43F
:1031800080729DE74FF4E0729AE74FF4307297E750
:1031900021680B6B23F00F03226A013A13430B6380
:1031A000B2E7636C23F0120343F010036364012061
:1031B00017B030BD0120FBE70000002083DE1B4379
:1031C00000010050000700500004005000050050AE
:1031D0000003005007C0F0FF03689B6813F0040F62
:1031E00040F0AD8010B5044690F84030012B00F05F
:1031F000A880012380F84030FFF764FE002840F0EB
:103200009A80636C23F4706323F0010343F48073AA
:1032100063642368B3F1A04F33D04B4A934230D05C
:103220004A4A926812F01F0F30D1626C22F4801269
:103230006264DA6812F0007F05D0626C22F44052BA
:1032400042F480526264626C12F4805F3ED0A26CE1
:1032500022F00602A264002284F840201C221A6098
:103260002368B3F1A04F34D0374A934231D0374A64
:10327000926812F01F0F31D19A6842F004029A60EE
:103280005CE0334A926812F01F0FCED0B3F1A04F2A
:10329000CBD0304A9342C8D0626C42F48012626450
:1032A000294A93420CD02B4AD268C2F34062002ACA
:1032B000C9D0626C22F4405242F480526264C2E788
:1032C0004FF0A042D268C2F34062F0E70022A2644D
:1032D000C1E71F4A926812F01F0FCDD0B3F1A04F83
:1032E00009D0194A934206D0184A926802F01F0288
:1032F000052A06D1C0E7164A926802F01F02052A85
:10330000BAD0B3F1A04F09D00F4A934206D00F4A6A
:10331000926802F01F02092A06D1ADE70C4A9268B2
:1033200002F01F02092AA7D0B3F1A04FA4D0094A86
:10333000934203D1A0E7002384F8403010BD02205F
:1033400070470220FAE700BF00010050000700505C
:1033500000030050000400502DE9F04104460D46E2
:103360004669082E10D00368B3F1A04F37D04C4AFD
:10337000934231D04B4A916811F01F0F3AD1DB686C
:1033800013F0010F2DD10C262368B3F1A04F40D0CC
:10339000434A93423DD0434A926812F01F0F3DD1F9
:1033A000DB681F46FFF73AFD804623681A68324201
:1033B00044D1B5F1FF3FF8D02DB1FFF72FFD4346C3
:1033C000C01AA842F1D9636C43F00403636400237C
:1033D00084F8403003205EE002F50072CBE7324A09
:1033E000C9E7636C43F020036364002384F8403032
:1033F000012050E0936813F4404F01D10C26C3E73D
:10340000636C43F020036364002384F840300120A0
:1034100041E0254A926812F01F0FC1D0B3F1A04FCE
:10342000BED0224A9342BBD01D4A934203D01F4BC9
:10343000DB681F46B6E74FF0A043F9E7626C42F441
:1034400000726264DA6812F4406F1FD117F4005FF3
:103450001CD11A6812F0080F18D09A6812F0040FE5
:103460000CD1626C22F480726264626C12F4805F30
:103470000CD1626C42F00102626407E0626C42F0BF
:1034800020026264A26C42F00102A26417F4804F31
:1034900003D11E600020BDE8F0810020FBE700BFE3
:1034A00000010050000700500003005000040050CD
:1034B0000368186C7047000000B597B000220092B6
:1034C00090F84020012A00F021820346012280F872
:1034D00040200068826812F0040F40F00D824A68B4
:1034E000042A4ED8D0F830C002EB420252004FF00E
:1034F0001F0E0EFA02FE2CEA0E0CD1F800E00EFAB6
:1035000002F24CEA020202631868826812F00C0FA1
:1035100040F0A9800A68092A73D9D0F818C00A3A7D
:1035200002EB42024FF0070E0EFA02FE2CEA0E0CDE
:10353000D1F808E00EFA02F24CEA02028261486910
:10354000D3F800C0DCF80C20C2F3C1025200904056
:103550000A69032A00F0B38065D8012A75D0022ACF
:1035600040F0BC80DCF864E0BE4A0EEA0202D1F80A
:1035700000E040EA8E60024342F00042CCF8642052
:1035800071E0092A13D8D0F834C0053A02EB4202A0
:1035900052004FF01F0E0EFA02FE2CEA0E0CD1F86C
:1035A00000E00EFA02F24CEA02024263ACE70E2A95
:1035B00013D8D0F838C00A3A02EB420252004FF05A
:1035C0001F0E0EFA02FE2CEA0E0CD1F800E00EFAE5
:1035D00002F24CEA0202826396E7D0F83CC00F3A4E
:1035E00002EB420252004FF01F0E0EFA02FE2CEACE
:1035F0000E0CD1F800E00EFA02F24CEA0202C263AD
:1036000082E7D0F814C002EB42024FF0070E0EFA28
:1036100002FE2CEA0E0CD1F808E00EFA02F24CEA97
:10362000020242618BE7042A58D1DCF86C20DFF8F3
:1036300034E202EA0E0E0A6840EA82624EEA020EA4
:103640004EF00042CCF86C200DE0DCF860E0854ADA
:103650000EEA0202D1F800E040EA8E60024342F036
:103660000042CCF860201868826802F00302012A48
:103670006DD0CA68012A70D0D0F8B0204FF0010C8C
:10368000D1F800E00CFA0EFC22EA0C02C0F8B020DF
:103690001A68B2F1A04F00F09C807348824200F09B
:1036A0009580DFF8C8C10968102900F095801129BC
:1036B00000F0A780122900F0AA80002021E1DCF8A8
:1036C00068E0684A0EEA0202D1F800E040EA8E6043
:1036D000024342F00042CCF86820C4E7DCF86020E6
:1036E00002F0F8420868B2EB806F1FD01868426E93
:1036F00002F0F842D1F800C0B2EB8C6F1DD0186810
:10370000826E02F0F842D1F800C0B2EB8C6F19D093
:103710001868C26E02F0F842D1F800C0B2EB8C6FAC
:10372000A1D1C26E22F00042C2669CE7DCF86020A4
:1037300022F00042CCF86020D8E7426E22F000422E
:103740004266DCE7826E22F000428266E0E70268B1
:1037500012F0010F8DD00020D3E0D0F8B0204FF050
:10376000010CD1F800E00CFA0EFC42EA0C02C0F8A1
:10377000B0200A68092A14D9D3F800E0DEF818004E
:10378000093A02EB42024FF0070C0CFA02FC20EA65
:103790000C00D1F808C00CFA02F20243CEF818204F
:1037A00076E7D3F800E0DEF81400013202EB4202C3
:1037B0004FF0070C0CFA02FC20EA0C00D1F808C00C
:1037C0000CFA02F20243CEF8142061E7DFF8A0C041
:1037D00069E7DFF89CC066E7DCF8080010F4000F2A
:1037E0007FF465AFB2F1A04F18D01F4882422DD0B0
:1037F000204882422ED0204882422FD000200190C3
:103800000EE0DCF8080010F0807FEBD052E7DCF827
:10381000080010F4800FE5D0002072E012480190FB
:10382000906800F00300012828D0019830B1D0F84A
:1038300008E00EF0030EBEF1010F29D010292CD0A4
:10384000112946D012294FD000205AE04FF0A04055
:103850000190E5E700F580700190E1E7A0F5807048
:103860000190DDE700F0FF830001005000070050E9
:10387000000300500004005000050050106810F0D4
:10388000010FD2D05A6C42F020025A64012038E075
:10389000006810F0010FF5D1D0E7B2F1A04FCFD101
:1038A000DCF8082042F40002CCF80820184A12681C
:1038B0001849A1FB0212920C02EB82025200009204
:1038C00002E0009A013A0092009A002AF9D11046CB
:1038D00017E0B2F1A04FB5D1DCF8082042F08072B9
:1038E000CCF8082000200CE0DCF8082042F480022C
:1038F000CCF80820002004E05A6C42F020025A6400
:103900000120002283F8402017B000BD0220FBE711
:103910000000002083DE1B4310B54A690123934059
:10392000D0F800C0DCF8002242F00102CCF80022FE
:10393000D0F800E0DEF81C226FEA030C22EA030252
:10394000CEF81C22CA69EAB9D0F800E0DEF80C22F1
:103950000CEA0202CEF80C22B1F804E04A69CC6805
:103960004EEA044E4832046844F832E0B1F800E010
:103970004A698C684EEA044E4832046804EBC2027D
:10398000C2F804E0CA69012A23D08A69002A3ED11C
:10399000D0F800E0DEF804220CEA0202CEF804229D
:1039A0000A693AB9D0F800E0DEF814220CEA020203
:1039B000CEF814220A69012A31D00A6A012A36D0C7
:1039C0000268D2F8003223F00103C2F8003200206E
:1039D00010BDD0F800E0DEF80C221A43CEF80C221D
:1039E000B1F804E04A690C684EEA044E48320468B3
:1039F00044F832E0B1F80CE04A698C684EEA044EB3
:103A00004832046804EBC202C2F804E0BDE7D0F813
:103A100000E0DEF804221A43CEF80422C0E7D0F812
:103A200000C0DCF814221A43CCF81422C5E7016860
:103A3000D1F81C221343C1F81C32C1E7002800F062
:103A4000B68038B5044690F8393003B3022384F8C1
:103A500039302268136823F0020313602268136868
:103A600043F001031360FFF7D9F9054623685A684C
:103A700012F0010F10D1FFF7D1F9401B0A28F5D938
:103A8000032084F83900002384F8383038BD80F8EA
:103A90003830FFF783F8D9E75A6812F0010F00F0C9
:103AA0008180A269012A50D01A6822F080021A602F
:103AB000E369012B4ED02268136823F040031360A2
:103AC000236A012B4CD02268136823F02003136073
:103AD000636A012B4AD02268136823F01003136035
:103AE000A36A012B48D02268136823F008031360EF
:103AF000E36A012B46D02268136823F004031360A5
:103B0000A368E2681343226913436269134362683E
:103B1000013A21681343CB612268136823F0010343
:103B20001360FFF77BF9054623685A6812F0010F0E
:103B30002ED0FFF773F9401B0A28F5D9032084F82B
:103B40003900002384F83830A0E71A6842F0800278
:103B50001A60ADE72268136843F040031360AFE7D3
:103B60002268136843F020031360B1E722681368EA
:103B700043F010031360B3E72268136843F00803AF
:103B80001360B5E72268136843F004031360B7E7D6
:103B90005B6813F0010F05D10020E063012384F876
:103BA000393073E7042384F8393001206EE70120AF
:103BB00070470000F8B590F83830012B00F0CD8048
:103BC00004460E46012380F8383090F83930222B15
:103BD00011D0122380F8393023689A6812F0806F70
:103BE00015D19A6812F0006F69D19A6812F0805F5F
:103BF00005D002250CE0322380F83930ECE70423AD
:103C000084F83930002384F838300120A0E0002502
:103C100005F118021201995801F001019950226B27
:103C20009368002B4DD1206805F118031B01C15882
:103C3000D2F800C0D26842EA4C520A43C250226B0A
:103C4000136903F00F031361236805F118010A01DA
:103C500003EB0113586820F00F005860236803EB52
:103C600001135968206B006901435960216BC87DBD
:103C70008B7D1B0443EA0063487D43EA0023087DF3
:103C80002168034301EB0511C1F88831216BC87E1F
:103C90008B7E1B0443EA0063487E43EA0023087ED0
:103CA0002168034301EB0511C1F88C3121688B5861
:103CB00043F001038B50FFF7B1F807462CE00125D4
:103CC000A6E7D4F800C005F1180109015CF801006D
:103CD000D2F804E043EACE03D268134303434CF81E
:103CE0000130ACE726B1FFF799F8C01BB04213D9F9
:103CF000032084F83900002384F8383028E0012DAF
:103D000014D023689A68164B934314BF01230023F1
:103D1000A3B1B6F1FF3FE5D1002DF0D123689A6839
:103D2000104B934314BF01232B46F1E723689A6895
:103D30000D4B934314BF01230023E9E794F8393076
:103D4000322B06D0012384F83930002084F8380063
:103D5000F8BD222384F83930F7E70220F8E700BFE6
:103D600000000310030000040003000890F839303D
:103D7000012B03D090F83930122B4CD190F8383009
:103D8000012B4AD0012380F8383090F83930122BBB
:103D900036D0222380F839300022C263D0F800C028
:103DA000DCF8143043F48073CCF81430D0F800C041
:103DB000DCF8143043F40073CCF81430D0F800C0B1
:103DC000DCF8143043F48063CCF81430D0F800C031
:103DD000DCF8143043F40063CCF81430D0F800C0A1
:103DE000DCF8143043F40043CCF8143080F8382069
:103DF00051B90268536943F00203536108467047A2
:103E0000322380F83930C7E70268536943F0100362
:103E100053610020704702207047022070477047AE
:103E200008B50268536923F00103536190F83930F3
:103E3000122B0AD090F83930322B20D0012380F891
:103E40003930FFF7ECFF002008BD0268536923F406
:103E5000807353610268536923F4007353610268ED
:103E6000536923F4806353610268536923F4006348
:103E700053610268536923F400435361DAE7222354
:103E800080F83930DDE708B5026801F11B031B013A
:103E9000D358426B03F004039360436B9A68002A83
:103EA0007BD101F11B021201D0F800C05CF80220A6
:103EB000520D1A60026801F11B031B01D25802F077
:103EC0000202D0F834C0CCF80C2002681A445268C0
:103ED00002F00F02D0F834C0CCF8102002681A4467
:103EE0005368426BC3F30723D361036803EB0113E9
:103EF000D3F8B821436B1A75036803EB0113D3F8A9
:103F0000B8311B0A426B5375036803EB0113D3F8F6
:103F1000B8311B0C426B9375036803EB0113D3F8A4
:103F2000B8311B0E426BD375036803EB0113D3F852
:103F3000BC21436B1A76036803EB0113D3F8BC3141
:103F40001B0A426B5376036803EB0113D3F8BC31B1
:103F50001B0C426B9376036803EB0113D3F8BC315F
:103F60001B0E426BD37611BB0268D36843F020036B
:103F7000D3600268536923F00203536190F839302B
:103F8000222B1FD090F83930322B35D0012380F806
:103F9000393005F081FE002008BD01F11B0212013D
:103FA000D0F800C05CF80220D2085A6082E70268AC
:103FB000136943F0200313610268536923F010036F
:103FC0005361DBE70268536923F48073536102682D
:103FD000536923F4007353610268536923F48063C7
:103FE00053610268536923F40063536102685369A3
:103FF00023F400435361C5E7122380F83930C8E742
:104000007047000010B5044603685A6912F0010FAA
:104010000ED09968534A8A4307D09968524A8A4316
:1040200003D09A68514B934302D12046FFF7F8FE24
:1040300023685A6912F0020F03D0DB6813F0030FF4
:104040005CD123685A6912F0100F03D01B6913F07A
:10405000030F58D123689A6912F0010F0BD05A69E7
:1040600012F4807F07D05A6912F4004F03D0E26B3C
:1040700042F00102E2639A6912F0020F0BD05A6912
:1040800012F4007F07D05A6912F4004F03D0E26B9C
:1040900042F00202E2639A6912F0040F0BD05A69EF
:1040A00012F4806F07D05A6912F4004F03D0E26B0C
:1040B00042F00402E2639A6912F0700F1BD05A6951
:1040C00012F4006F17D05A6912F4004F13D09A6996
:1040D00002F07002402A2ED01AD8202A21D0302A8D
:1040E00024D0102A03D1E26B42F00802E2639A69FD
:1040F00022F070029A61E36B3BBB10BD00212046A9
:10410000FFF7C1FE9DE701212046FFF7BCFEA1E7B6
:10411000502A15D0602AEAD1E26B42F48072E26341
:10412000E5E7E26B42F01002E263E0E7E26B42F0A7
:104130002002E263DBE7E26B42F04002E263D6E793
:10414000E26B42F08002E263D1E72268536843F0F9
:1041500004035360012384F839302046FFF750FFF1
:10416000CBE700BF030000040003000800000310B9
:10417000002808DB0901C9B200F1604000F5614088
:1041800080F80013704700F00F000901C9B2014B1D
:104190001954704714ED00E000B500F00700A0F1DD
:1041A000030CBCF1040F07D8C0F1070E0430062839
:1041B00006D84FF0000C03E04FF0040E4FF0000C57
:1041C0004FF0FF3303FA0EF021EA000101FA0CF17F
:1041D00003FA0CF322EA030241EA020000BD0000E8
:1041E000074AD36823F4E0631B041B0C000200F4AD
:1041F000E060034343F0BF6343F40033D360704790
:1042000000ED00E010B50446054BD868C0F302206D
:10421000FFF7C2FF01462046FFF7AAFF10BD00BF0F
:1042200000ED00E000F01F02400901239340024A24
:1042300042F82030704700BF00E100E00138B0F1E3
:10424000807F0BD24FF0E0235861054AF02182F8BD
:1042500023100020986107221A61704701207047DF
:1042600000ED00E0042806D04FF0E022136923F0AF
:104270000403136170474FF0E022136943F0040315
:1042800013617047704708B5FFF7FCFF08BDD0F811
:1042900000C0CCF804304368102B04D00368996048
:1042A0000368DA60704703689A600368D9607047F2
:1042B00018B310B4024690F821300BB980F82030C2
:1042C000022382F82130106801686FF30D115368E2
:1042D00094682343D46823431469234354692343D4
:1042E00094692343D46923430B4303600020906304
:1042F000012382F8213010BC70470120704710B5AF
:10430000044690F82000012826D0012084F82000DF
:10431000022084F82100D4F800C0DCF8000020F06E
:104320000100CCF800002046FFF7B1FF22681368B7
:1043300043F0020313602268136843F00403136020
:104340002268136843F0080313602268136843F07F
:1043500001031360002010BD0220FCE710B50446E5
:1043600003689B4A934240F2888002F560721268AB
:1043700098498B4224D014318B4266D014318B4241
:1043800065D014318B4265D014318B4265D0143125
:104390008B4265D014318B4265D001F562718B423E
:1043A00064D014318B4263D014318B4262D014310B
:1043B0008B4202D04FF4002103E04FF4004100E0B3
:1043C00008210A4214BF01220022002A00F0B18015
:1043D0001A6812F0080F00F0AC801A6822F0080288
:1043E0001A6023687A4A934240F2FA80783A9342FC
:1043F00000F08E801432934200F0D2801432934247
:1044000000F0D0801432934200F0CF8014329342F7
:1044100000F0CE801432934200F0CD8014329342EB
:1044200000F0CC8002F56272934200F0CA80143230
:10443000934200F0C8801432934200F0C6801432D8
:10444000934262D04FF4002263E08021B9E74FF439
:104450000061B6E74FF40041B3E74FF40021B0E745
:104460004FF40001ADE74FF00061AAE70821A8E78B
:104470008021A6E74FF40061A3E7574A1268554927
:104480008B4224D014318B4227D014318B4226D05A
:1044900014318B4226D014318B4226D014318B42FA
:1044A00026D014318B4226D001F562718B4225D083
:1044B00014318B4224D014318B4223D014318B42DF
:1044C00002D04FF4002103E04FF4004100E0082146
:1044D0000A4214BF0122002277E78021F8E74FF457
:1044E0000061F5E74FF40041F2E74FF40021EFE7F8
:1044F0004FF40001ECE74FF00061E9E70821E7E73E
:104500008021E5E74FF40061E2E74FF4004200E06C
:104510000822324B5A60A36B43F00103A3630423C8
:1045200084F82130002384F82030236B0BB120461F
:1045300098472368264A934240F2FA8002F5607257
:10454000126824498B4200F0928014318B4200F0B3
:10455000D78014318B4200F0D58014318B4200F0AB
:10456000D48014318B4200F0D38014318B4200F0A0
:10457000D28014318B4200F0D18001F562718B4200
:1045800000F0CF8014318B4200F0CD8014318B428B
:1045900000F0CB8014318B4266D04FF4802167E06D
:1045A0008022B6E74FF40062B3E74FF40042B0E771
:1045B0004FF40022ADE74FF40002AAE74FF000628B
:1045C000A7E70822A5E78022A3E74FF40062A0E74F
:1045D0008000024008000240000002400004024047
:1045E000A54A934224D01432934225D014329342E8
:1045F00024D01432934224D01432934224D0143263
:10460000934224D01432934224D002F56272934232
:1046100023D01432934222D01432934221D0143248
:10462000934202D04FF4002203E04FF4004200E036
:104630000822924B5A606EE78022FAE74FF400623C
:10464000F7E74FF40042F4E74FF40022F1E74FF4AC
:104650000002EEE74FF00062EBE70822E9E7802274
:10466000E7E74FF40062E4E74FF4804100E0042103
:104670000A4214BF01220022002A00F0AE801A680C
:1046800012F0040F00F0A9801A6812F0200F03D175
:104690001A6822F004021A602368794A934240F2B1
:1046A000F380783A934200F08E801432934200F007
:1046B000CB801432934200F0C9801432934200F050
:1046C000C8801432934200F0C7801432934200F045
:1046D000C6801432934200F0C58002F562729342A4
:1046E00000F0C3801432934200F0C1801432934230
:1046F00000F0BF801432934262D04FF4802263E016
:104700004021B5E74FF48061B2E74FF48041AFE755
:104710004FF48021ACE74FF48001A9E74FF08061AE
:10472000A6E70421A4E74021A2E74FF480619FE7B8
:10473000524A126850498B4224D014318B4227D000
:1047400014318B4226D014318B4226D014318B4247
:1047500026D014318B4226D014318B4226D001F55D
:1047600062718B4225D014318B4224D014318B429C
:1047700023D014318B4202D04FF4802103E04FF458
:10478000804100E004210A4214BF0122002273E7A5
:104790004021F8E74FF48061F5E74FF48041F2E7FC
:1047A0004FF48021EFE74FF48001ECE74FF0806198
:1047B000E9E70421E7E74021E5E74FF48061E2E71C
:1047C0004FF4804200E004222E4B5A60112384F8FB
:1047D0002130E36A0BB1204698472368284A934268
:1047E00040F2FA8002F56072126823498B4200F0B1
:1047F000928014318B4200F0D78014318B4200F04C
:10480000D58014318B4200F0D48014318B4200F0FB
:10481000D38014318B4200F0D28014318B4200F0EF
:10482000D18001F562718B4200F0CF8014318B4250
:1048300000F0CD8014318B4200F0CB8014318B42DC
:1048400066D04FF4003167E04022BDE74FF480624C
:10485000BAE74FF48042B7E74FF48022B4E74FF451
:104860008002B1E74FF08062AEE70422ACE740225D
:10487000AAE74FF48062A7E7080002400000024068
:104880008000024000040240A84A934224D014321F
:10489000934225D01432934224D01432934224D030
:1048A0001432934224D01432934224D014329342CF
:1048B00024D002F56272934223D01432934222D064
:1048C0001432934221D01432934202D04FF480220A
:1048D00003E04FF4804200E00422954B5A6075E7F4
:1048E0004022FAE74FF48062F7E74FF48042F4E7A2
:1048F0004FF48022F1E74FF48002EEE74FF0806240
:10490000EBE70422E9E74022E7E74FF48062E4E7BF
:104910004FF4005100E002210A4214BF012200229C
:10492000002A00F0B3801A6812F0020F00F0AE8087
:104930001A6812F0200F03D11A6822F002021A60DE
:1049400023687C4A934240F2BA80783A934200F05E
:104950008E801432934200F09A801432934200F019
:1049600098801432934200F097801432934200F002
:1049700096801432934200F095801432934200F0F6
:10498000948002F56272934200F092801432934256
:1049900000F090801432934200F08E8014329342E3
:1049A00062D04FF4003263E02021B5E74FF400718C
:1049B000B2E74FF40051AFE74FF40031ACE74FF4EA
:1049C0000011A9E74FF00071A6E70221A4E720211A
:1049D000A2E74FF400719FE7554A126853498B4292
:1049E00024D014318B4227D014318B4226D014317D
:1049F0008B4226D014318B4226D014318B4226D0E4
:104A000014318B4226D001F562718B4225D01431CE
:104A10008B4224D014318B4223D014318B4202D0EC
:104A20004FF4003103E04FF4005100E002210A424C
:104A300014BF0122002273E72021F8E74FF4007130
:104A4000F5E74FF40051F2E74FF40031EFE74FF490
:104A50000011ECE74FF00071E9E70221E7E72021C0
:104A6000E5E74FF40071E2E74FF4005200E0022264
:104A7000314B5A60A36BA363012384F821300023D8
:104A800084F82030A36A0BB12046984710BD20223D
:104A9000EEE74FF40072EBE74FF40052E8E74FF413
:104AA0000032E5E74FF40012E2E74FF00072DFE773
:104AB0000222DDE72022DBE74FF40072D8E71B4A31
:104AC000934224D01432934225D01432934224D0FE
:104AD0001432934224D01432934224D0143293429D
:104AE0002CD0143293422CD002F5627293422BD018
:104AF000143293422AD01432934229D01432934272
:104B000002D04FF4003203E04FF4005200E00222E2
:104B1000074B5A60AEE72022FAE74FF40072F7E73E
:104B20004FF40052F4E74FF40032F1E7080002407E
:104B30000000024080000240000402404FF40012D6
:104B4000E6E74FF00072E3E70222E1E72022DFE729
:104B50004FF40072DCE700BF044B0022DA61044A24
:104B6000136943F00103136101807047500D002069
:104B7000002002400C4BDB6813F0100305D00B4AF9
:104B8000D36943F00203D3611023074AD26812F0BD
:104B9000040F06D00549CA6942F00102CA6143F018
:104BA0000403014AD360704700200240500D0020EA
:104BB000074B1B6913F0800F07D0054B054A5A605D
:104BC00002F188325A60002070470120704700BF10
:104BD000002002402301674538B50446FEF71EF960
:104BE0000546144BDB6813F0010F0AD0B4F1FF3F08
:104BF000F7D024B1FEF712F9401BA042F1D90320EF
:104C000012E00C4BDB6813F0200F02D0094B20227E
:104C1000DA60084BDB6813F0100F06D1054BDB6838
:104C200013F0040F01D1002038BDFFF7A3FF0120CE
:104C3000FAE700BF002002402DE9F0411D46244B59
:104C40001B7E012B41D004460E461746204B012205
:104C50001A764CF25030FFF7BFFF034678BB012CA9
:104C600008D0022C03D04FF004081C4607E04FF098
:104C70000208FAE74FF00108F7E70134E4B24445CF
:104C80001DD22101C1F12002A1F1200327FA01F177
:104C900005FA02F2114325FA03F3194389B206EB30
:104CA0004400FFF759FF4CF25030FFF795FF094AD7
:104CB000136923F00103136103460028DDD0044A81
:104CC000002111761846BDE8F0810223FAE700BF03
:104CD000500D002000200240064B0022DA61064BF6
:104CE0001A6942F004021A611A6942F040021A611C
:104CF000704700BF500D002000200240064B0022EC
:104D0000DA61064B1A6942F002021A6158611A69A7
:104D100042F040021A617047500D0020002002400E
:104D2000264B1B7E012B45D070B505460E46234B06
:104D300001221A760368934220D04CF25030FFF7DC
:104D40004BFF88BB4FF0FF3333606C680121AA68CA
:104D50006B6803EBC223A34227D92046FFF7CEFF9F
:104D60004CF25030FFF738FF154A136923F0020365
:104D700013610146B0B904F50064E8E74CF2503025
:104D8000FFF72AFF08B101210FE0FFF7A5FF4CF262
:104D90005030FFF721FF0146094A136923F004034D
:104DA000136102E0346000E00121044B00221A7616
:104DB000084670BD02210846704700BF500D002014
:104DC0000020024070B582B000223AE0042400E0E6
:104DD0000024B44044EA0C040235664E46F82540EF
:104DE000654C2568DC4325EA0306D1F804C01CF4B1
:104DF000803F01D043EA05065F4D2E606D6804EAEE
:104E00000506D1F804C01CF4003F01D043EA0506B2
:104E1000594D6E60AD6804EA0506D1F804C01CF473
:104E2000801F01D043EA0506534DAE60ED682C406B
:104E30004E6816F4001F01D043EA05044E4BDC60B7
:104E400001320B6833FA02F400F091804FF0010C4C
:104E50000CFA02FC1CEA0303F2D04C68022C01D0CD
:104E6000122C12D1D508083550F8254002F007065B
:104E7000B6004FF00F0E0EFA06FE24EA0E0E0C6975
:104E8000B44044EA0E0440F82540066854004FF050
:104E9000030E0EFA04FE6FEA0E0526EA0E06D1F89E
:104EA00004E00EF0030E0EFA04FE4EEA060606605B
:104EB0004E6806F1FF3EBEF1010F03D9112E01D05D
:104EC000122E14D186682E40D1F80CE00EFA04FEA2
:104ED0004EEA06068660466826EA0C06D1F804C04B
:104EE000CCF3001C0CFA02FC4CEA06064660C668CD
:104EF00035408E6806FA04FC4CEA0505C5604C682E
:104F000014F0805F9CD01D4CA56945F00105A5619A
:104F1000A46904F001040194019C9508AE1C154C91
:104F200054F8264002F00306B6004FF00F0C0CFABE
:104F300006FC24EA0C0CB0F1904F3FF449AF104C42
:104F4000A0420ED004F58064A0420CD004F5806429
:104F5000A0420AD004F58064A0423FF437AF052494
:104F600037E7012435E7022433E7032431E702B0B1
:104F700070BD00BF0000014000040140001002406D
:104F8000000400480369194201D001207047002045
:104F900070470AB1816170478162704703689A69FE
:104FA00012F0020F01D000229A6203689A6912F08F
:104FB000010F03D19A6942F001029A617047D0F85B
:104FC00000C0DCF8040020F07F7020F4593020F499
:104FD0007F7020F00300C1F3090141EA0241194347
:104FE000009B19430143CCF80410704770B5044688
:104FF0000D46164603689B6913F0100F01D100207F
:1050000070BD23689A6912F0200F12D1B5F1FF3FED
:10501000F7D025B1FDF702FF801BA842F1D920236C
:1050200084F84130002384F8423084F84030032073
:10503000E6E71022DA6123682025DD612046FFF7CC
:10504000ADFF2268536823F0FF7323F48B3323F4FE
:10505000FF7323F0010353600423636484F8415019
:10506000002384F8423084F840300120C8E770B54E
:1050700004460D46164623689B6913F0020F1CD1A7
:10508000324629462046FFF7B1FFC0B9B5F1FF3FD0
:10509000F1D025B1FDF7C2FE801BA842EBD9636CAD
:1050A00043F020036364202384F84130002384F814
:1050B000423084F84030032000E0002070BD012021
:1050C000FCE7F8B505460F4616461C462B689B695B
:1050D00037EA03030CBF4FF0010C4FF0000CB4454E
:1050E00013D1B4F1FF3FF1D02CB1FDF797FE069B31
:1050F000C01AA042EAD9202385F84130002385F860
:10510000423085F84030032000E00020F8BD70B543
:1051100005460C4616462B689B6913F0200F19D1E3
:10512000324621462846FFF761FFA8B924B1FDF7B2
:1051300075FE801BA042EED96B6C43F020036B64BC
:10514000202385F84130002385F8423085F840302F
:10515000032070BD0020FCE70120FAE770B504468B
:105160000D46164623689B6913F0040F32D1324670
:1051700029462046FFF73AFF70BB23689A6912F070
:10518000200F11D125B1FDF749FE801BA842E9D9B6
:10519000636C43F020036364202384F841300023D0
:1051A00084F84030032070BD2022DA6121684B680A
:1051B00023F0FF7323F48B3323F4FF7323F00103F5
:1051C0004B60606484F8412084F8420084F8400019
:1051D0000120E8E70020E6E70120E4E7002854D0BA
:1051E00010B5044690F84130002B3FD0242384F8BA
:1051F00041302268136823F001031360636822685A
:1052000023F0706313612268936823F40043936072
:10521000A36833B1E268012A2DD0226843F4044325
:105220009360E368022B2BD02268536843F000732D
:1052300043F400435360236962691343A169226800
:1052400043EA0123D360E369216A22680B431360B8
:105250002268136843F00103136000206064202378
:1052600084F84130206384F8420010BD80F840305B
:10527000FDF7C2FCBAE7226843F400439360D0E72D
:1052800023684FF400625A60CEE7012070472DE991
:10529000F04383B00F460A9E90F84110202940F059
:1052A000B18004469046994690F84030012B00F0BA
:1052B000AD804FF0010380F84030FDF7AFFD0546AB
:1052C0000090192301224FF400412046FFF7F9FE18
:1052D000002840F09D80212384F84130102384F879
:1052E00042306064C4F82480A4F82A906063638D1F
:1052F0009BB2FF2B0BD9FF2222854FF40053009362
:105300004FF0807339462046FFF759FE20E0628D4A
:1053100092B222854FF4005300934FF00073D2B243
:1053200039462046FFF74BFE12E0636C042B01D098
:10533000032068E0012066E0628D92B2228500239E
:1053400000934FF00073D2B239462046FFF737FE84
:10535000638D9BB2002B32D02A4631462046FFF7A0
:1053600086FE0028E1D1636A5A1C626222681B78BB
:105370009362638D9BB2013B9BB26385238D013B9E
:105380009BB22385002BE3D1638D9BB2002BDFD032
:1053900000953346024680212046FFF792FE002802
:1053A00038D1638D9BB2FF2BC6D9FF222285009096
:1053B0004FF0807339462046FFF701FEC8E72A46C2
:1053C00031462046FFF7A3FE30B1636C042B01D0B9
:1053D000032018E0012016E023682022DA6121680A
:1053E0004B6823F0FF7323F48B3323F4FF7323F014
:1053F00001034B6084F84120002384F8423084F894
:10540000403000E0022003B0BDE8F0830220FAE75C
:105410000320F8E70320F6E72DE9F04383B00F46B9
:105420000A9E90F84110202940F0B0800446904632
:10543000994690F84030012B00F0AC804FF001030A
:1054400080F84030FDF7EAFC054600901923012260
:105450004FF400412046FFF734FE002840F09C80C6
:10546000222384F84130102384F842306064C4F869
:105470002480A4F82A906063638D9BB2FF2B0BD924
:10548000FF2222854FF4105300934FF0807339466A
:105490002046FFF794FD20E0628D92B222854FF402
:1054A000105300934FF00073D2B239462046FFF7F5
:1054B00086FD12E0636C042B01D0032067E001201D
:1054C00065E0628D92B22285002300934FF0007355
:1054D000D2B239462046FFF772FD638D9BB2002B96
:1054E00031D02A4631462046FFF738FE0028E1D168
:1054F00023685A6A636A591C61621A70228D013AE4
:1055000092B22285638D9BB2013B9BB26385002AD8
:10551000E3D1638D9BB2002BDFD000953346802111
:105520002046FFF7CEFD002838D1638D9BB2FF2BBC
:10553000C7D9FF22228500904FF08073394620465C
:10554000FFF73DFDC9E72A4631462046FFF7DFFD5C
:1055500030B1636C042B01D0032018E0012016E069
:1055600023682022DA6121684B6823F0FF7323F45B
:105570008B3323F4FF7323F001034B6084F8412045
:10558000002384F8423084F8403000E0022003B069
:10559000BDE8F0830220FAE70320F8E70320F6E7EE
:1055A000034690F84120202A23D190F84020012A78
:1055B00021D0012280F84020242280F84120006878
:1055C000026822F0010202601868026822F4805228
:1055D0000260186802680A43026019680A6842F0AB
:1055E00001020A60202283F84120002083F8400055
:1055F000704702207047022070477047002846D04D
:1056000038B504460368DB6813F0070F41D1437CCB
:105610007BB302236374236845F255521A602268F3
:10562000536823F0070361680B4353602268936853
:105630006FF30B03A1680B439360E26840F6FF73BE
:105640009A4205D123681A6940F6FF739A421AD02C
:10565000FDF7E4FB05462368DA6812F0070F0CD06B
:10566000FDF7DCFB401BB0F57A7FF4D903206074B2
:105670000CE00374FFF7C1FFCBE71A696FF30B026D
:10568000E1680A431A6101236374002038BD0120D8
:1056900070470120FAE738B5037C012B2AD0044675
:1056A0000123037402234374C26840F6FF739A42D5
:1056B00016D023684CF6CC421A60FDF7AFFB0546C6
:1056C0002368DB6813F0070F0FD0FDF7A7FB401B23
:1056D000B0F57A7FF4D9032060740023237408E0C6
:1056E00003684AF6AA221A60E3E7012363740020E4
:1056F000207438BD0220FCE738B5037C012B1FD095
:1057000004460123037402234374FDF787FB054617
:105710002368DA6812F0020F0AD0FDF77FFB431B03
:10572000B3F57A7FF4D9032060740023237406E074
:105730004AF6AA221A60012363740020207438BD3F
:105740000220FCE70D4B1A6842F081021A6059688A
:105750000B4A0A405A601A6822F0847222F480329E
:105760001A601A6822F480221A6000225A60DA62F3
:105770001A639A60034B044A1A6070470010024093
:105780000CC0FFF80000002000127A0070B582B053
:105790000446036813F0010F3BD0B44B5B6803F081
:1057A0000C03042B1ED0B14B5B6803F00C03082BD9
:1057B00013D06368B3F5803F68D0002B40F092802F
:1057C00003F1804303F504331A6822F480321A602F
:1057D0001A6822F480221A605DE0A44B5B6813F41F
:1057E000803FE6D04FF4003393FAA3F39F4B1A683F
:1057F0004FF4003393FAA3F3B3FA83F303F01F03D8
:1058000022FA03F313F0010F03D06368002B00F0BA
:10581000AD82236813F0020F00F0C480934B5B68E5
:1058200013F00C0F00F09C80904B5B6803F00C03AE
:10583000082B00F08F802369002B00F0EF800122FD
:1058400092FAA2F3B3FA83F39B0003F1844303F5C6
:1058500084031A60FDF7E2FA0546022393FAA3F3E4
:10586000824B1A68022393FAA3F3B3FA83F303F08B
:105870001F0322FA03F313F0010F40F0C180FDF77C
:10588000CDFA401B0228E8D9032078E2774A136852
:1058900043F480331360754AD36A23F00F03A16881
:1058A0000B43D3626368002B36D0FDF7B7FA054689
:1058B0004FF4003393FAA3F36C4B1A684FF40033A0
:1058C00093FAA3F3B3FA83F303F01F0322FA03F36B
:1058D00013F0010F9DD1FDF7A1FA401B6428E7D911
:1058E00003204CE2B3F5A02F09D0604B1A6822F4D4
:1058F00080321A601A6822F480221A60CBE703F122
:105900008043A3F53C331A6842F480221A601A6877
:1059100042F480321A60BEE7FDF780FA05464FF484
:10592000003393FAA3F3514B1A684FF4003393FA00
:10593000A3F3B3FA83F303F01F0322FA03F313F084
:10594000010F3FF466AFFDF769FA401B6428E6D902
:10595000032014E2454B5B6813F4803F7FF46BAF88
:10596000022393FAA3F3414B1A68022393FAA3F399
:10597000B3FA83F303F01F0322FA03F313F0010FCA
:1059800003D02369012B40F0F3813848036823F0EA
:10599000F8036169F82292FAA2F2B2FA82F2914017
:1059A0000B430360236813F0080F00F08A80A3699B
:1059B000002B5FD0012292FAA2F3B3FA83F32C49B1
:1059C00041F82320FDF72AFA0546022393FAA3F2B1
:1059D00093FAA3F293FAA3F2244A526A93FAA3F336
:1059E000B3FA83F303F01F0322FA03F313F0010F5A
:1059F00067D1FDF713FA401B0228E6D90320BEE168
:105A00001A48036823F0F8036169F82292FAA2F2B7
:105A1000B2FA82F291400B430360C3E7012393FA89
:105A2000A3F3B3FA83F39B0003F1844303F58403E8
:105A300000221A60FDF7F2F90546022393FAA3F358
:105A40000A4B1A68022393FAA3F3B3FA83F303F021
:105A50001F0322FA03F313F0010FA3D0FDF7DEF9C1
:105A6000401B0228E9D9032089E100BF0010024051
:105A700080044242012393FAA3F3B3FA83F3B84AB2
:105A8000002142F82310FDF7C9F90546022393FAD5
:105A9000A3F293FAA3F293FAA3F2B24A526A93FAE8
:105AA000A3F3B3FA83F303F01F0322FA03F313F013
:105AB000010F06D0FDF7B2F9401B0228E6D90320FA
:105AC0005DE1236813F0040F00F0AB80A54BDB69A8
:105AD00013F0805F21D1A34BDA6942F08052DA6182
:105AE000DB6903F080530193019B01231E469E4B0B
:105AF0001B6813F4807F13D0E368012B24D07BBB99
:105B000003F1804303F504331A6A22F001021A629A
:105B10001A6A22F004021A621BE000231E46E6E71E
:105B2000914A136843F480731360FDF777F90546D3
:105B30008D4B1B6813F4807FDED1FDF76FF9401B9E
:105B40006428F5D903201AE1864A136A43F0010359
:105B50001362E368002B3CD0FDF760F905462EE0A8
:105B6000052B09D07F4B1A6A22F001021A621A6AC9
:105B700022F004021A62ECE77A4B1A6A42F004023D
:105B80001A621A6A42F001021A62E2E7022393FAE9
:105B9000A3F3744B5A6A022393FAA3F3B3FA83F381
:105BA00003F01F0322FA03F313F0010F38D1FDF7BE
:105BB00035F9401B41F28833984200F2DB80022322
:105BC00093FAA3F293FAA3F3002BDFD0654B1A6A82
:105BD000E1E7FDF723F9054618E0022393FAA3F362
:105BE000604B5A6A022393FAA3F3B3FA83F303F0E8
:105BF0001F0322FA03F313F0010F11D0FDF70EF982
:105C0000401B41F28833984200F2B680022393FA97
:105C1000A3F293FAA3F3002BDFD0524B1A6AE1E709
:105C2000B6BBE369002B00F0A9804E4A526802F02F
:105C30000C02082A00F0A580022B2FD04FF08073B1
:105C400093FAA3F3B3FA83F39B0003F1844303F5C0
:105C5000840300221A60FDF7E1F804464FF0007358
:105C600093FAA3F33F4B1A684FF0007393FAA3F330
:105C7000B3FA83F303F01F0322FA03F313F0010FC7
:105C80006BD0FDF7CBF8001B0228E7D9032076E0A4
:105C9000344AD36923F08053D361C2E74FF0807355
:105CA00093FAA3F3B3FA83F39B0003F1844303F560
:105CB000840300221A60FDF7B1F805464FF0007327
:105CC00093FAA3F3274B1A684FF0007393FAA3F3E8
:105CD000B3FA83F303F01F0322FA03F313F0010F67
:105CE00006D0FDF79BF8401B0228E7D9032046E0C9
:105CF0001C494B6823F47413626A206A02431343FD
:105D00004B604FF0807393FAA3F3B3FA83F39B00D5
:105D100003F1844303F5840301221A60FDF77EF842
:105D200004464FF0007393FAA3F30E4B1A684FF03A
:105D3000007393FAA3F3B3FA83F303F01F0322FA79
:105D400003F313F0010F06D1FDF768F8001B0228DA
:105D5000E7D9032013E0002011E000200FE000BF8E
:105D6000800442420010024000700040012006E022
:105D7000012004E0032002E0032000E0184602B006
:105D800070BD0120FBE700BF164B5B6803F00C02FF
:105D9000082A01D01448704703F470114FF47012B0
:105DA00092FAA2F2B2FA82F221FA02F20F49885C68
:105DB0000C4AD26A02F00F020F2191FAA1F1B1FA56
:105DC00081F1CA400A498A5C13F4803F05D0064B32
:105DD000B3FBF2F303FB00F07047064B03FB00F04C
:105DE000704700BF0010024000127A0054300108D2
:105DF0004430010800093D0070B504460D46704B63
:105E00001B6803F007038B420BD26D4A136823F023
:105E100007030B431360136803F007038B4240F042
:105E2000C880236813F0020F06D0664A536823F037
:105E3000F003A1680B435360236813F0010F7AD07D
:105E40006368012B2FD0022B42D0022292FAA2F2D9
:105E50005C4A1168022292FAA2F2B2FA82F202F0CD
:105E60001F0221FA02F212F0010F00F0A48055493E
:105E70004A6822F0030213434B60FCF7CFFF06464B
:105E80006368012B39D0022B46D04E4B5B6813F070
:105E90000C0F50D0FCF7C2FF831B41F288329342B3
:105EA000F3D9032084E04FF4003292FAA2F2454A7B
:105EB00011684FF4003292FAA2F2B2FA82F202F0C2
:105EC0001F0221FA02F212F0010FD0D101206FE07F
:105ED0004FF0007292FAA2F23A4A11684FF0007243
:105EE00092FAA2F2B2FA82F202F01F0221FA02F250
:105EF00012F0010FBBD101205AE0324B5B6803F076
:105F00000C03042B17D0FCF789FF831B41F2883266
:105F10009342F2D903204BE02A4B5B6803F00C0359
:105F2000082B08D0FCF77AFF801B41F28833984297
:105F3000F2D903203CE0224B1B6803F00703AB427D
:105F40000AD91F4A136823F007032B431360136811
:105F500003F00703AB4230D1236813F0040F06D0DF
:105F6000184A536823F4E063E1680B4353602368E5
:105F700013F0080F07D0134A536823F460532169C4
:105F800043EAC1035360FFF7FFFE0E4B5B6803F06B
:105F9000F003F02292FAA2F2B2FA82F2D3400A4A55
:105FA000D35CD840094B18600020FCF707FF0020A5
:105FB00070BD0120FCE70120FAE70120F8E700BFEF
:105FC0000020024000100240343001080000002090
:105FD000014B1868704700BF0000002008B5FFF7AC
:105FE000F7FF074B5B6803F4E0634FF4E06292FA5B
:105FF000A2F2B2FA82F2D340024AD35CD84008BD82
:10600000001002402C30010808B5FFF7E1FF074BF4
:106010005B6803F460534FF4605292FAA2F2B2FA52
:1060200082F2D340024AD35CD84008BD001002403F
:106030002C30010870B582B00446036813F4803F29
:1060400047D0914BDB6913F0805F40F0D4808E4BDA
:10605000DA6942F08052DA61DB6903F08053019320
:10606000019B01231E46894B1B6813F4807F00F0BF
:10607000C580854B1B6A13F4407320D0626802F41C
:1060800040729A421BD08048016A21F4407E4FF44E
:10609000803393FAA3F2B2FA82F2DFF8F4C1012559
:1060A0004CF8225093FAA3F3B3FA83F300224CF88E
:1060B0002320C0F820E011F0010F40F0B480724AB4
:1060C000136A23F4407361680B431362002E40F09F
:1060D000D180236813F0010F06D06B4A136B23F0B5
:1060E0000303A1680B431363236813F0020F06D068
:1060F000654A136B23F44033E1680B431363236851
:1061000013F0040F06D0604A136B23F44023216977
:106110000B431363236813F0200F06D05A4A136B06
:1061200023F01003E1690B431363236813F4003F6A
:1061300006D0554A536823F48003A16B0B43536088
:10614000236813F0400F06D04F4A136B23F020034F
:10615000216A0B431363236813F0080F06D04A4AE1
:10616000136B23F4401361690B431363236813F02B
:10617000100F06D0444A136B23F44003A1690B436C
:106180001363236813F4007F06D03F4A536823F457
:106190000003E16A0B435360236813F0800F06D0BD
:1061A000394AD36A23F4F873616A0B43D3622368D4
:1061B00013F4807F06D0344AD36A23F47853A16A5B
:1061C0000B43D362236813F4805F06D02E4A136B0F
:1061D00023F48073216B0B431363236813F4005F74
:1061E0004FD0294A136B23F40073616B0B43136385
:1061F000002002B070BD00231E4634E7234A136816
:1062000043F480731360FCF709FE05461F4B1B68BF
:1062100013F4807F7FF42DAFFCF700FE401B642851
:10622000F4D90320E5E7FCF7F9FD054618E0022361
:1062300093FAA3F3144B5A6A022393FAA3F3B3FA23
:1062400083F303F01F0322FA03F313F0010F7FF42B
:1062500036AFFCF7E3FD401B41F2883398420ED87D
:10626000022393FAA3F293FAA3F3002BDFD0064B99
:106270001A6AE1E7D36923F08053D36129E7032049
:10628000B7E70020B5E700BF0010024000700040F3
:10629000000442422DE9F04182B007460C46154603
:1062A0001E46FCF7BBFD804602E0B6F1FF3F11D170
:1062B0003A68936803EA040CAC4541D0B4F5C06F6A
:1062C000F3D1002DF1D1137BDBB28DF807309DF8AF
:1062D0000730EAE72EB1FCF7A1FD4346C01AB042F1
:1062E000E6D33A68536823F0E00353607B68B3F564
:1062F000827F0BD0BB6AB3F5005F14D0012387F80F
:106300005D30002387F85C3003201AE0BB68B3F5EA
:10631000004F02D0B3F5806FECD13A68136823F0D8
:1063200040031360E6E73A68136823F400531B0444
:106330001B0C13603A68136843F400531360DDE7E5
:10634000002002B0BDE8F0812DE9F04105460F467E
:1063500016461C46FCF762FD80462B689B6803EAE4
:10636000070CB44538D0B4F1FF3FF6D02CB1FCF7A0
:1063700055FD4346C01AA042EFD32A68536823F064
:10638000E00353606B68B3F5827F0BD0AB6AB3F563
:10639000005F14D0012385F85D30002385F85C3060
:1063A00003201AE0AB68B3F5004F02D0B3F5806F5D
:1063B000ECD12A68136823F040031360E6E72A68EB
:1063C000136823F400531B041B0C13602A68136822
:1063D00043F400531360DDE70020BDE8F08138B5D9
:1063E00004460B460D4600224FF4C051FFF752FF02
:1063F00038B92B46024680212046FFF7A5FF30B969
:1064000038BD236E43F0200323660320F8E7236E94
:1064100043F0200323660320F2E72DE9F04782B022
:1064200004460F46904699460A9DFCF7F7FC94F8FF
:106430005C30012B00F076818246012384F85C30C9
:1064400094F85D30DEB2012B40F06181002F00F046
:106450005F814246002A00F05B814846002800F038
:106460005781052384F85D3000232366C4F84080FB
:10647000A4F84690A4F84490A763A4F83E90A4F82A
:106480003C90A36AB3F5005F1AD0E368B3F5E06F00
:1064900003D8B4F84630012B1FD92268536823F47F
:1064A0008053536023681A6812F0400F03D11A68B2
:1064B00042F040021A60E368B3F5E06F2ED88AE03C
:1064C0002268136823F400531B041B0C136022681A
:1064D000136843F400531360D7E72268536843F40A
:1064E00080535360DEE72268136843F480531360DF
:1064F000B4F846307BB123689A6812F0010F0AD0D5
:10650000DA68236C1A80236C02332364B4F84630B3
:10651000013BA4F84630B5F1FF3F2BD1E38F23B9FF
:10652000B4F84620002A00F09A80002BE0D02368BF
:106530009A6812F0020FDBD0A26B1288DA60A36BAC
:106540000233A363E38F013B9BB2E387002BCFD1E0
:10655000A36AB3F5005FCBD123681A6812F0040F69
:10656000C1D15A6812F0080FBDD01A6842F4007207
:106570001A60B8E7FCF752FC5346C01AA842CDD3C4
:106580000326C5E0A36B591CA1631B781373E38F2B
:10659000013BE38736E023681A6812F0040F07D145
:1065A0005A6812F0080F03D01A6842F400721A6099
:1065B0002268136843F48053136029E0236C591C4C
:1065C0002164127B1A70B4F84630013BA4F84630BF
:1065D000B5F1FF3F3BD1E38F1BB9B4F84620002A49
:1065E0003DD0ABB12268916811F0020F10D0012BA1
:1065F000C8D9A36B1B88D360A36B0233A363E38F5B
:10660000023BE387E38F1BB9A36AB3F5005FC2D0F7
:10661000B4F84630002BDBD02268916811F0010FEE
:10662000D6D0012BCAD9D268236C1A80236C0233CE
:106630002364B4F84630023B9BB2A4F84630012BE9
:10664000C6D82268536843F480535360C0E7FCF710
:10665000E5FB5346C01AA842BDD3032658E0A36AFF
:10666000B3F5005F18D023689A6812F0100F4BD072
:10667000226E42F0020222664FF6EF729A603746AF
:1066800029462046FFF7ABFE08B120232366236E80
:10669000002B3DD13E463BE02B46012211462046D1
:1066A000FFF752FEE0B9E368B3F5706F1ED02368C0
:1066B0001B7BDBB2ADF80630BDF80630236B022B36
:1066C000D1D12B46012211462046FFF73DFEA8B945
:1066D00023681B7BDBB2ADF80630BDF80630C2E79D
:1066E000236E43F002032366032611E02368DB6870
:1066F0009BB2ADF80630BDF80630B4E7236E43F028
:1067000002032366032603E000231F46B8E70226A0
:10671000012384F85D30002384F85C30304602B0F9
:10672000BDE8F0870226F9E710B5044690F86A0044
:1067300020282CD169B372B394F86830012B2CD087
:10674000012384F868306165A4F858200023E366CB
:10675000222384F86A30636E11489862636E114890
:10676000D862636E10481863206813460A4600F129
:106770002401606EFDF7C3FD2268936843F0400377
:1067800093604FF0000384F86830002000E002209E
:1067900010BD0120FCE70120FAE70220F8E700BF66
:1067A000AF670008DD670008E9670008704708B5B3
:1067B0000346406A1B681B6813F0200F0AD10023B0
:1067C000A0F85A300268936823F0400393602023B6
:1067D00080F86A30FFF7EAFF08BD704708B5406AE5
:1067E000FFF7FBFF08BD704708B5406A0023A0F81B
:1067F0005A30A0F85230202380F8693080F86A308F
:10680000C36E43F01003C366FFF7EDFF08BD000041
:1068100038B50446836802691A4343691A43C36959
:106820001A4301680B6823F4164323F00C03134347
:106830000B600268536823F44053C1680B435360F4
:106840008369026A1A4301688B6823F43063134337
:106850008B6003689B4A934226D09B4A934235D073
:106860009A4A934247D09A4A934259D0994A9342BE
:106870006AD01025E269B2F5004F00F0A180022D28
:1068800000F0088140F2E880042D00F00F81082D0F
:1068900040F0F38061684A0802F50042B2FBF1F271
:1068A00092B2DA600025BFE002F55842126B02F0A6
:1068B0000302022A5CD005D8002A5BD0012A5BD1F2
:1068C0000425D7E7032A59D10225D3E702F5E6329A
:1068D000126B02F44032B2F5003F51D006D8002AC4
:1068E00050D0B2F5803F4FD10425C3E7B2F5403F09
:1068F0004CD10225BEE702F5E432126B02F44022CD
:10690000B2F5002F44D006D8002A43D0B2F5802F2C
:1069100042D10425AEE7B2F5402F3FD10225A9E7C9
:1069200002F5E232126B02F44012B2F5001F37D0CA
:1069300005D8BAB3B2F5801F36D104259AE7B2F56F
:10694000401F33D1022595E702F5E032126B02F4C5
:106950004002B2F5000F2BD005D85AB3B2F5800F24
:106960002AD1042586E7B2F5400F27D1022581E719
:1069700008257FE701257DE710257BE7102579E7CE
:10698000082577E7154675E7102573E7102571E7A9
:1069900008256FE715466DE710256BE7102569E7B9
:1069A000082567E7154665E7102563E7102561E7C9
:1069B00008255FE715465DE710255BE7102559E7D9
:1069C000022D33D00CD9042D3BD0082D19D162688B
:1069D000530803F58033B3FBF2F39BB200251CE0B0
:1069E00095B1012D0AD1FFF70FFB6268530803EB45
:1069F0004003B3FBF2F39BB200250EE00125002318
:106A00000BE00125002308E0FFF7E8FA626853086D
:106A100003EB4003B3FBF2F39BB223F00F02C3F38B
:106A2000420313432268D360284638BD6268530886
:106A300003F5740303F51053B3FBF2F39BB2002587
:106A4000EBE7FFF7A1F96268530803EB4003B3FBE0
:106A5000F2F39BB20025E0E78DB1012D0BD1FFF7DA
:106A6000D3FA626800EB5203B3FBF2F322689BB2E5
:106A7000D3600025D8E70125D6E70125D4E7FFF745
:106A8000ADFA626800EB5203B3FBF2F322689BB2EB
:106A9000D360C9E761684A0802F5F40202F5905232
:106AA000B2FBF1F292B2DA600025BDE7FFF76CF9B4
:106AB000626800EB5203B3FBF2F322689BB2D3602F
:106AC0000025B1E700380140004400400048004084
:106AD000004C004000500040436A13F0010F06D004
:106AE0000268536823F40033816A0B435360436A9E
:106AF00013F0020F06D00268536823F48033C16A92
:106B00000B435360436A13F0040F06D002685368C6
:106B100023F48023016B0B435360436A13F0080F87
:106B200006D00268536823F40043416B0B43536063
:106B3000436A13F0100F06D00268936823F4805361
:106B4000816B0B439360436A13F0200F06D00268F9
:106B5000936823F40053C16B0B439360436A13F0B3
:106B6000400F0AD00268536823F48013016C0B4372
:106B70005360036CB3F5801F0BD0436A13F0800F92
:106B800006D00268536823F40023816C0B435360E2
:106B900070470268536823F4C003416C0B43536091
:106BA000EBE72DE9F04105460E4617461C46FCF77B
:106BB00035F9804667B32B68DA6936EA020257D1A5
:106BC000B4F1FF3FF7D02CB1FCF728F94346C01AC7
:106BD000A042F0D92A68136823F0800313602A6862
:106BE000136823F0200313602A68136823F480736A
:106BF00013602A68936823F001039360202385F8CB
:106C0000693085F86A30002385F8683003202DE06C
:106C10002B68DB6936EA030327D0B4F1FF3FF7D0D6
:106C20002CB1FCF7FBF84346C01AA042F0D92A6801
:106C3000136823F0800313602A68136823F020038D
:106C400013602A68136823F4807313602A689368BA
:106C500023F001039360202385F8693085F86A30BA
:106C6000002385F86830032000E03846BDE8F08155
:106C70000020FBE770B51E4690F86930202B44D108
:106C800004460D46002942D0002A42D090F86830D0
:106C9000012B40D0012380F868300023C3662123F4
:106CA00080F86930A0F85020A0F8522005E029466D
:106CB000236811F8012B1A850D46B4F85220BAB199
:106CC000013AA4F852203346002280212046FFF7E3
:106CD00068FF10BBA368B3F5805FE8D12369002B80
:106CE000E5D135F8023B2268C3F308031385E4E7D6
:106CF000334640212046FFF754FF80B9202384F813
:106D00006930002384F8683000E0022070BD012063
:106D1000FCE70120FAE70220F8E70320F6E703206A
:106D2000F4E710B504460023C36603681B6813F03C
:106D3000080F0DD123681B6813F0040F13D1202313
:106D400084F8693084F86A30002084F8680010BD47
:106D50004FF47A7300224FF40011FFF722FF00284E
:106D6000E8D00320F3E74FF47A7300224FF4800158
:106D70002046FFF716FF0028E1D00320E7E778B3AD
:106D800010B5044690F869300BB3242384F86930B9
:106D90002268136823F0010313602046FFF738FDD3
:106DA000012813D0636ABBB92268536823F4904367
:106DB00053602268936823F02A0393602268136863
:106DC00043F0010313602046FFF7ABFF10BD80F8CE
:106DD0006830FBF759FFD8E72046FFF77DFEE3E771
:106DE0000120704700B587B0009101230193002373
:106DF000039306220292049305936946FCF75CFB19
:106E000000B1FEE707B000BD30B587B000241CE03C
:106E100023494A69234804EB440300EBC3035D683C
:106E20002A434A61DA6802929A6801921A690392C7
:106E3000032204925B69059304EB440301A950F813
:106E40003300FDF7BFFF0134E4B2012CE0D9144B4D
:106E50005A6942F080525A615B6903F08053009393
:106E6000009B11484FF0A04303604FF48033436010
:106E7000002383600361C36143620363C360012233
:106E8000026243630822426183618363FCF756F820
:106E900000B1FEE702210448FFF7A4FF07B030BDB0
:106EA0000010024064300108780D00202DE9F04107
:106EB000804602211548FFF795FF002634463746E5
:106EC00001E00134E4B2092C10D8104D2846FCF73B
:106ED00083F901212846FCF73FFA0028F1D1284622
:106EE000FCF7E6FA07440136F6B2EAE766B1B7FB0B
:106EF000F6F080B2FBF71AFA0549FBF76BFAC8F80F
:106F000000000120BDE8F0813046FBE7780D00204D
:106F100014AE653C08B5FFF7C9FF08BD2DE9F04781
:106F20000746884691469A4601213448FFF75AFFA2
:106F30000024264601E00134E4B2042C0ED82F4D83
:106F40002846FCF749F901212846FCF705FA0028F4
:106F5000F1D12846FCF7ACFA0644ECE7284BA3FB3A
:106F60000630C0F38F00FBF7DDF901462548FBF73B
:106F7000E5FA4FF07E51FBF723F90446224D2860D5
:106F80004846FBF7CFF92146FBF7D8FA04462860BC
:106F90004046FBF7C7F901462046FBF7CFFA1B4CEA
:106FA0002060FAF791FD09F005FEFBF7B5F80546FC
:106FB00020605046FBF7B6F901462846FBF7BEFABB
:106FC0000546206012490898FBF7FCF801464FF08F
:106FD0007E50FBF7B3FA01462846FBF7F3F801466B
:106FE00020604FF07E50FBF7A9FA20600849FBF7BC
:106FF000E7F838600120BDE8F08700BF780D002079
:10700000CDCCCCCC00F07F45740D0020700D00205D
:107010003393884300E00430064B984207D8038836
:107020009BB24FF6FF729342F5D0002070470120CB
:10703000704700BFFF0F00084FF008231B889BB26A
:10704000104A128892B288B1012813D13AB94EF68B
:10705000EE618B4201D001230DE013460BE063B9D2
:107060004EF6EE618A4206D1012304E01BB132B92B
:10707000012300E0002318467047AB23FBE7AB2356
:10708000F9E700BF0010000870B506460D46012064
:10709000FFF7D2FFAB281FD000F10114E402431C1C
:1070A000DB0203F1006303F2FF739C4213D22268F8
:1070B000B2F1FF3F01D00434F7E72A46002321460E
:1070C0000120FDF7B9FD034630B93246A11C01206D
:1070D000FDF7B2FD00E0802070BD000010B584B067
:1070E0000023039300934FF00820019001230293A3
:1070F000FFF790FF28B903A96846FDF711FE044683
:1071000040B9002200234FF008210120FDF794FD33
:10711000044610B1204604B010BD06480190FFF7A8
:1071200079FF0028F6D103A96846FDF7F9FD04466A
:10713000F0E700BF0010000800B585B00023009301
:1071400001934FF00823029302230393694601A899
